{
  "contractName": "Caller",
  "abi": [
    {
      "constant": true,
      "inputs": [
        {
          "internalType": "address",
          "name": "baseAddress",
          "type": "address"
        }
      ],
      "name": "getBaseX",
      "outputs": [
        {
          "internalType": "uint256",
          "name": "",
          "type": "uint256"
        }
      ],
      "payable": false,
      "stateMutability": "view",
      "type": "function"
    }
  ],
  "bytecode": "0x608060405234801561001057600080fd5b5061014c806100206000396000f3fe608060405234801561001057600080fd5b506004361061002b5760003560e01c80633bd24dc114610030575b600080fd5b6100726004803603602081101561004657600080fd5b81019080803573ffffffffffffffffffffffffffffffffffffffff169060200190929190505050610088565b6040518082815260200191505060405180910390f35b6000808290508073ffffffffffffffffffffffffffffffffffffffff16635197c7aa6040518163ffffffff1660e01b815260040160206040518083038186803b1580156100d457600080fd5b505afa1580156100e8573d6000803e3d6000fd5b505050506040513d60208110156100fe57600080fd5b810190808051906020019092919050505091505091905056fea265627a7a723158205aaa35494c0b4a4fbd46821734beb52f079f4b336117c17167788184c67650e464736f6c63430005100032",
  "source": "// SPDX-License-Identifier: MIT\npragma solidity >=0.4.22 <0.9.0;\n\ncontract Base {\n\n  uint x;\n\n  constructor() public {\n    x = 10;\n  }\n\n  function setX(uint _x) public returns(bool) {\n    x = _x;\n    return true;\n  }\n\n  function getX() public view returns(uint) {\n   return x;\n  }\n}\n\ncontract Caller {\n  function getBaseX(address baseAddress) public view returns(uint) {\n    Base baseContract = Base(baseAddress);\n    return baseContract.getX();\n  }\n\n}\n",
  "sourcePath": "/home/navid/projects/consensys-academy/petshop/contracts/BaseCaller.sol",
  "compiler": {
    "name": "solc",
    "version": "0.5.16+commit.9c3226ce.Emscripten.clang"
  },
  "schemaVersion": "3.4.3",
  "updatedAt": "2021-10-19T08:24:25.168Z",
  "networkType": "ethereum",
  "devdoc": {
    "methods": {}
  },
  "userdoc": {
    "methods": {}
  }
}