{
  "contractName": "FirstCaller",
  "abi": [
    {
      "constant": true,
      "inputs": [],
      "name": "num",
      "outputs": [
        {
          "internalType": "uint256",
          "name": "",
          "type": "uint256"
        }
      ],
      "payable": false,
      "stateMutability": "view",
      "type": "function"
    },
    {
      "constant": false,
      "inputs": [
        {
          "internalType": "address",
          "name": "_base",
          "type": "address"
        },
        {
          "internalType": "uint256",
          "name": "_num",
          "type": "uint256"
        }
      ],
      "name": "setBaseNum",
      "outputs": [],
      "payable": false,
      "stateMutability": "nonpayable",
      "type": "function"
    },
    {
      "constant": false,
      "inputs": [
        {
          "internalType": "address",
          "name": "_base",
          "type": "address"
        },
        {
          "internalType": "uint256",
          "name": "_num",
          "type": "uint256"
        }
      ],
      "name": "callSetNum",
      "outputs": [],
      "payable": false,
      "stateMutability": "nonpayable",
      "type": "function"
    },
    {
      "constant": false,
      "inputs": [
        {
          "internalType": "address",
          "name": "_base",
          "type": "address"
        },
        {
          "internalType": "uint256",
          "name": "_num",
          "type": "uint256"
        }
      ],
      "name": "delegatecallSetNum",
      "outputs": [],
      "payable": false,
      "stateMutability": "nonpayable",
      "type": "function"
    }
  ],
  "bytecode": "0x608060405234801561001057600080fd5b506104a3806100206000396000f3fe608060405234801561001057600080fd5b506004361061004c5760003560e01c80631efcc01514610051578063343335601461009f5780634e70b1dc146100ed578063ff04162c1461010b575b600080fd5b61009d6004803603604081101561006757600080fd5b81019080803573ffffffffffffffffffffffffffffffffffffffff16906020019092919080359060200190929190505050610159565b005b6100eb600480360360408110156100b557600080fd5b81019080803573ffffffffffffffffffffffffffffffffffffffff169060200190929190803590602001909291905050506101ce565b005b6100f561031a565b6040518082815260200191505060405180910390f35b6101576004803603604081101561012157600080fd5b81019080803573ffffffffffffffffffffffffffffffffffffffff16906020019092919080359060200190929190505050610320565b005b60008290508073ffffffffffffffffffffffffffffffffffffffff1663cd16ecbf836040518263ffffffff1660e01b815260040180828152602001915050600060405180830381600087803b1580156101b157600080fd5b505af11580156101c5573d6000803e3d6000fd5b50505050505050565b600060608373ffffffffffffffffffffffffffffffffffffffff1683604051602401808281526020019150506040516020818303038152906040527fcd16ecbf000000000000000000000000000000000000000000000000000000007bffffffffffffffffffffffffffffffffffffffffffffffffffffffff19166020820180517bffffffffffffffffffffffffffffffffffffffffffffffffffffffff83818316178352505050506040518082805190602001908083835b602083106102aa5780518252602082019150602081019050602083039250610287565b6001836020036101000a038019825116818451168082178552505050505050905001915050600060405180830381855af49150503d806000811461030a576040519150601f19603f3d011682016040523d82523d6000602084013e61030f565b606091505b509150915050505050565b60005481565b600060608373ffffffffffffffffffffffffffffffffffffffff1683604051602401808281526020019150506040516020818303038152906040527fcd16ecbf000000000000000000000000000000000000000000000000000000007bffffffffffffffffffffffffffffffffffffffffffffffffffffffff19166020820180517bffffffffffffffffffffffffffffffffffffffffffffffffffffffff83818316178352505050506040518082805190602001908083835b602083106103fc57805182526020820191506020810190506020830392506103d9565b6001836020036101000a0380198251168184511680821785525050505050509050019150506000604051808303816000865af19150503d806000811461045e576040519150601f19603f3d011682016040523d82523d6000602084013e610463565b606091505b50915091505050505056fea265627a7a723158205208d0def4ad9e1d6b821ccf3f809f59e20ca40d0fe8012740f60e957c67cefe64736f6c63430005100032",
  "source": "// SPDX-License-Identifier: MIT\npragma solidity >=0.4.22 <0.9.0;\n\ncontract Base {\n   uint public num;\n   address public sender;\n    \n    function setNum(uint _num) public {\n        num = _num;\n        sender = msg.sender;\n    }\n}\n\ncontract FirstCaller {\n   uint public num;\n   \n   function setBaseNum(address _base, uint _num) public {\n       Base base = Base(_base);\n       base.setNum(_num);\n   }\n   \n   function callSetNum(address _base, uint _num) public {\n       (bool status, bytes memory returnData) = _base.call(abi.encodeWithSignature(\"setNum(uint256)\", _num));\n   }\n   \n   function delegatecallSetNum(address _base, uint _num) public {\n    (bool status, bytes memory returnData) = _base.delegatecall(abi.encodeWithSignature(\"setNum(uint256)\", _num));\n  }\n    \n}\n\ncontract SecondCaller {\n    function callThrough(FirstCaller _fc, Base _base, uint _num) public {\n        _fc.delegatecallSetNum(address(_base), _num);\n    }\n}\n",
  "sourcePath": "/home/navid/projects/consensys-academy/petshop/contracts/ContextSwitcher.sol",
  "compiler": {
    "name": "solc",
    "version": "0.5.16+commit.9c3226ce.Emscripten.clang"
  },
  "schemaVersion": "3.4.3",
  "updatedAt": "2021-10-19T07:32:36.228Z",
  "devdoc": {
    "methods": {}
  },
  "userdoc": {
    "methods": {}
  }
}